:020000040800F2
:10000000780600208901000891010008930100088A
:100010009501000897010008990100080000000000
:100020000000000000000000000000009B0100082C
:100030009D010008000000009F010008A1010008C8
:10004000A3010008A3010008A3010008A301000800
:10005000A3010008A301000845020008A30100084D
:10006000A3010008A3010008A3010008A3010008E0
:10007000A3010008A3010008A3010008A3010008D0
:10008000A3010008A3010008A3010008A3010008C0
:10009000A3010008A3010008A3010008A3010008B0
:1000A000A301000861040008A3010008A3010008DF
:1000B000A3010008A301000800000000A30100083C
:1000C000A30100080000000000000000A3010008D8
:1000D00000000000A3010008A301000800000000C8
:1000E000A3010008A3010008A301000800F002F822
:1000F00000F03AF80AA090E8000C82448344AAF188
:100100000107DA4501D100F02FF8AFF2090EBAE885
:100110000F0013F0010F18BFFB1A43F0010318473B
:100120003404000054040000103A24BF78C878C199
:10013000FAD8520724BF30C830C144BF04680C60ED
:10014000704700000023002400250026103A28BF35
:1001500078C1FBD8520728BF30C148BF0B60704739
:100160001FB51FBD10B510BD00F031F81146FFF7E7
:10017000F7FF00F0E7F900F04FF803B4FFF7F2FFE4
:1001800003BC00F057F800000948804709480047C1
:10019000FEE7FEE7FEE7FEE7FEE7FEE7FEE7FEE737
:1001A000FEE7FEE704480549054A064B7047000094
:1001B000CD030008ED00000878000020780600203C
:1001C000780200207802002070477047704775461B
:1001D00000F02CF8AE4605006946534620F00700B3
:1001E000854618B020B5FFF7DDFFBDE820404FF091
:1001F00000064FF000074FF000084FF0000BAC4630
:10020000ACE8C009ACE8C009ACE8C009ACE8C0097A
:1002100021F007018D46704710B50446AFF300800A
:100220002046BDE81040FFF7A8BF00000048704717
:100230001000002001491820ABBEFEE72600020096
:100240007047000040F21440C4F201000168C90781
:1002500008BF7047016841F00101016040F2700081
:10026000C2F20000017801310170704780B541F29F
:100270001800C4F20200016841F001010160082089
:10028000C4F20100016821F00F0101600168016002
:10029000D0F8F81341F00101C0F8F81340F20C4017
:1002A000C4F20100016841F001010160062000F084
:1002B00031F900F03FF980BD41F21800C4F20200AC
:1002C000016841F00C01016040F60440C4F20100F5
:1002D0004FF03331016040F60000C4F2010043F2F8
:1002E0003331C0F8001400210160016841F0300191
:1002F0000160016841F008010160C16841F001013D
:10030000C160704780B500F001F880BD82B041F255
:1003100004000021C4F202000191009150F8041C75
:1003200041F4803140F8041C50F8041C01F4003101
:100330000091019901310191009919B90199B1F523
:10034000A06FF1D150F8041C890354BF0021012192
:1003500000910099012936D142F20001C4F2020154
:100360000A6842F010020A600A6822F007020A6076
:100370000A6842F002020A600168016001680160D7
:10038000016841F480610160016821F47C11016021
:10039000016841F4E811016050F8041C41F08071DB
:1003A00040F8041C50F8041C8901FBD5016821F0B9
:1003B00003010160016841F002010160016801F080
:1003C0000C010829FAD102B07047000080B541F253
:1003D0000000C4F202000168002241F00101016046
:1003E0004168CFF6FF021140416001684FF6FF728D
:1003F000CFF6F66211400160016821F480210160AE
:10040000416821F4FE0141604FF41F018160FFF754
:1004100079FF4EF60850CEF200004FF00061016007
:1004200080BD000080B541F21800C4F202000168EE
:1004300041F40061016042F60040C4F2010041F65F
:100440003F710185FA218185818941F00101818116
:10045000018841F001010180192000F05BF880BDA6
:1004600080B542F61040C4F201000188C90708BFF8
:1004700080BD018821F00101018040F27000C2F2CC
:100480000000007800F002F880BD000081B048F262
:100490001F51C5F2EB11A0FB01124CF6CD41CCF679
:1004A000CC41A0FB011300218DF8001051098DF8FB
:1004B0000110D9088DF8021001EB8101A0EB410079
:1004C0008DF8030040F60C40C4F201004FF4702197
:1004D000416001686B4641F40041016040F27101E6
:1004E000C2F200010A789A5C40F20003C2F20003F3
:1004F0009A5C036843EA022202600A78012303FA45
:1005000002F242600878013000F00300087001B088
:1005100070470000002848BF704700F01F0101220B
:1005200002FA01F14EF200124009CEF2000242F846
:10053000201070474EF20640CEF2000000210170FC
:1005400070470000FFF7B8FEFFF790FEFFF76AFF65
:10055000FEE7000074050008000000200C00000009
:10056000280100088005000810000020680600002F
:1005700044010008C0F9A4B0999282F8809000006C
:040000050800018965
:00000001FF
