:020000040800F2
:10000000680600206D0100087501000877010008EE
:10001000790100087B0100087D0100080000000054
:100020000000000000000000000000007F01000848
:10003000810100080000000083010008850100081C
:100040008701000887010008870100088701000870
:1000500087010008870100082902000887010008BD
:100060008701000887010008870100088701000850
:100070008701000887010008870100088701000840
:100080008701000887010008870100088701000830
:100090008701000887010008870100088701000820
:1000A0008701000887010008870100088701000810
:1000B0001D040008870100080000000087010008F7
:1000C0008701000800000000000000008701000810
:1000D0000000000087010008870100080000000000
:1000E00087010008870100088701000800F002F876
:1000F00000F02CF80AA090E8000C82448344AAF196
:100100000107DA4501D100F021F8AFF2090EBAE893
:100110000F0013F0010F18BFFB1A43F0010318473B
:10012000D4030000E403000000230024002500267F
:10013000103A28BF78C1FBD8520728BF30C148BF4A
:100140000B6070471FB51FBD10B510BD00F031F832
:100150001146FFF7F7FF00F0C5F900F04FF803B4C0
:10016000FFF7F2FF03BC00F057F800000948804792
:1001700009480047FEE7FEE7FEE7FEE7FEE7FEE789
:10018000FEE7FEE7FEE7FEE704480549054A064BA1
:1001900070470000C5030008ED000008680000205B
:1001A000680600206802002068020020704770473F
:1001B0007047754600F02CF8AE4605006946534678
:1001C00020F00700854618B020B5FFF7DDFFBDE839
:1001D00020404FF000064FF000074FF000084FF0AE
:1001E000000BAC46ACE8C009ACE8C009ACE8C009FB
:1001F000ACE8C00921F007018D46704710B50446F0
:10020000AFF300802046BDE81040FFF7A8BF000014
:10021000004870470000002001491820ABBEFEE7EF
:10022000260002007047000040F21440C4F20100B2
:100230000168C90708BF7047016841F0010101600A
:1002400040F26000C2F20000017801310170704795
:1002500080B541F21800C4F20200016841F00101CA
:1002600001600820C4F20100016821F00F01016063
:1002700001680160D0F8F81341F00101C0F8F813EB
:1002800040F20C40C4F20100016841F0010101603C
:10029000062000F00FF900F01DF980BD41F21800B2
:1002A000C4F20200016843F2333341F00C010160F3
:1002B00040F60440C4F20100002101600268C0F26F
:1002C00033331A43026040F60000C4F20100C0F864
:1002D0000014D0F8002443F233331A43C0F800244A
:1002E0000160016841F030010160016841F00801DE
:1002F0000160C16841F00101C160704780B500F044
:1003000001F880BD82B041F204000021C4F2020075
:100310000191009150F8041C41F4803140F8041C14
:1003200050F8041C01F40031009101990131019150
:10033000009919B90199B1F5A06FF1D150F8041CD9
:10034000890354BF0021012100910099012936D170
:1003500042F20001C4F202010A6842F010020A608F
:100360000A6822F007020A600A6842F002020A6084
:100370000168016001680160016841F48061016009
:10038000016821F47C110160016841F4E811016009
:1003900050F8041C41F0807140F8041C50F8041C13
:1003A0008901FBD5016821F003010160016841F07A
:1003B00002010160016801F00C010829FAD102B0C4
:1003C0007047000080B541F20000C4F202000168ED
:1003D000002241F0010101604168CFF6FF021140A7
:1003E000416001684FF6FF72CFF6F662114001607E
:1003F000016821F480210160416821F4FE0141601F
:100400004FF41F018160FFF779FF4EF60850CEF2DE
:1004100000004FF00061016080BD00001020C4F2B8
:1004200000000188C90708BF7047018821F0010159
:10043000018040F60C00C4F20100016881F0020165
:100440000160704710B541F21804C4F2020420683C
:10045000472140F40060206042F60040C4F20100F1
:10046000018540F2F3118185018841F0010101808D
:10047000818941F001018181192000F01BF8606839
:1004800041F61F4140F0010060600C20C4F2000002
:1004900081834EF65F2101844FF080410A8842F04B
:1004A00001020A80018841F0010101801C2000F056
:1004B00001F810BD002848BF704700F01F0101225D
:1004C00002FA01F14EF200124009CEF2000242F8A7
:1004D000201070474EF20640CEF20000002101705D
:1004E00070470000FFF7DAFEFFF7ACFFFFF7B0FE42
:1004F000FEE7000004050008000000206806000078
:0405000028010008C6
:04000005080000ED02
:00000001FF
